{
  "contractName": "quiz",
  "abi": [
    {
      "constant": true,
      "inputs": [],
      "name": "num_players",
      "outputs": [
        {
          "name": "",
          "type": "uint256"
        }
      ],
      "payable": false,
      "stateMutability": "view",
      "type": "function"
    },
    {
      "constant": true,
      "inputs": [
        {
          "name": "",
          "type": "uint256"
        }
      ],
      "name": "end_time",
      "outputs": [
        {
          "name": "",
          "type": "uint256"
        }
      ],
      "payable": false,
      "stateMutability": "view",
      "type": "function"
    },
    {
      "constant": true,
      "inputs": [],
      "name": "registration_fee",
      "outputs": [
        {
          "name": "",
          "type": "uint256"
        }
      ],
      "payable": false,
      "stateMutability": "view",
      "type": "function"
    },
    {
      "constant": true,
      "inputs": [
        {
          "name": "",
          "type": "uint256"
        }
      ],
      "name": "start_time",
      "outputs": [
        {
          "name": "",
          "type": "uint256"
        }
      ],
      "payable": false,
      "stateMutability": "view",
      "type": "function"
    },
    {
      "constant": true,
      "inputs": [],
      "name": "no_members",
      "outputs": [
        {
          "name": "",
          "type": "uint256"
        }
      ],
      "payable": false,
      "stateMutability": "view",
      "type": "function"
    },
    {
      "inputs": [
        {
          "name": "participants",
          "type": "uint256"
        },
        {
          "name": "pfee",
          "type": "uint256"
        },
        {
          "name": "starttime",
          "type": "uint256[4]"
        },
        {
          "name": "endtime",
          "type": "uint256[4]"
        },
        {
          "name": "question1",
          "type": "string"
        },
        {
          "name": "question2",
          "type": "string"
        },
        {
          "name": "question3",
          "type": "string"
        },
        {
          "name": "question4",
          "type": "string"
        },
        {
          "name": "answers",
          "type": "uint256[4]"
        }
      ],
      "payable": true,
      "stateMutability": "payable",
      "type": "constructor"
    },
    {
      "anonymous": false,
      "inputs": [
        {
          "indexed": false,
          "name": "sender",
          "type": "address"
        },
        {
          "indexed": false,
          "name": "amount",
          "type": "uint256"
        }
      ],
      "name": "AmountCollected",
      "type": "event"
    },
    {
      "constant": true,
      "inputs": [],
      "name": "crypto_puzzle",
      "outputs": [
        {
          "name": "",
          "type": "string"
        }
      ],
      "payable": false,
      "stateMutability": "view",
      "type": "function"
    },
    {
      "constant": false,
      "inputs": [
        {
          "name": "answer",
          "type": "uint256"
        }
      ],
      "name": "solve_puzzle",
      "outputs": [
        {
          "name": "",
          "type": "string"
        }
      ],
      "payable": false,
      "stateMutability": "nonpayable",
      "type": "function"
    },
    {
      "constant": false,
      "inputs": [
        {
          "name": "answer",
          "type": "string"
        }
      ],
      "name": "answer_question_1",
      "outputs": [],
      "payable": false,
      "stateMutability": "nonpayable",
      "type": "function"
    },
    {
      "constant": false,
      "inputs": [
        {
          "name": "answer",
          "type": "string"
        }
      ],
      "name": "answer_question_2",
      "outputs": [],
      "payable": false,
      "stateMutability": "nonpayable",
      "type": "function"
    },
    {
      "constant": false,
      "inputs": [
        {
          "name": "answer",
          "type": "string"
        }
      ],
      "name": "answer_question_3",
      "outputs": [],
      "payable": false,
      "stateMutability": "nonpayable",
      "type": "function"
    },
    {
      "constant": false,
      "inputs": [
        {
          "name": "answer",
          "type": "string"
        }
      ],
      "name": "answer_question_4",
      "outputs": [],
      "payable": false,
      "stateMutability": "nonpayable",
      "type": "function"
    },
    {
      "constant": false,
      "inputs": [],
      "name": "pay_fee",
      "outputs": [
        {
          "name": "",
          "type": "string"
        }
      ],
      "payable": true,
      "stateMutability": "payable",
      "type": "function"
    },
    {
      "constant": true,
      "inputs": [],
      "name": "reveal_questions",
      "outputs": [
        {
          "name": "",
          "type": "string"
        }
      ],
      "payable": false,
      "stateMutability": "view",
      "type": "function"
    },
    {
      "constant": false,
      "inputs": [
        {
          "name": "key",
          "type": "uint256"
        }
      ],
      "name": "get_winners",
      "outputs": [],
      "payable": true,
      "stateMutability": "payable",
      "type": "function"
    }
  ],
  "bytecode": "0x6080604052604051620033af380380620033af833981018060405262000029919081019062000412565b600033601460006101000a81548173ffffffffffffffffffffffffffffffffffffffff021916908373ffffffffffffffffffffffffffffffffffffffff1602179055506000601460009054906101000a900473ffffffffffffffffffffffffffffffffffffffff1673ffffffffffffffffffffffffffffffffffffffff1631111515620000ed576040517f08c379a0000000000000000000000000000000000000000000000000000000008152600401620000e4906200058a565b60405180910390fd5b42600081905550600090505b60048110156200017157600588826004811015156200011457fe5b602002015102600054016001826004811015156200012e57fe5b0181905550600587826004811015156200014457fe5b602002015102600054016005826004811015156200015e57fe5b01819055508080600101915050620000f9565b85600c9080519060200190620001899291906200026f565b5084600d9080519060200190620001a29291906200026f565b5083600e9080519060200190620001bb9291906200026f565b5082600f9080519060200190620001d49291906200026f565b50816000600481101515620001e557fe5b60200201516010819055508160016004811015156200020057fe5b60200201516011819055508160026004811015156200021b57fe5b60200201516012819055508160036004811015156200023657fe5b602002015160138190555089600a819055508860098190555060006018819055506000600b81905550505050505050505050506200066a565b828054600181600116156101000203166002900490600052602060002090601f016020900481019282601f10620002b257805160ff1916838001178555620002e3565b82800160010185558215620002e3579182015b82811115620002e2578251825591602001919060010190620002c5565b5b509050620002f29190620002f6565b5090565b6200031b91905b8082111562000317576000816000905550600101620002fd565b5090565b90565b600082601f83011215156200033257600080fd5b6004620003496200034382620005da565b620005ac565b915081838560208402820111156200036057600080fd5b60005b83811015620003945781620003798882620003fc565b84526020840193506020830192505060018101905062000363565b5050505092915050565b600082601f8301121515620003b257600080fd5b8151620003c9620003c382620005fd565b620005ac565b91508082526020830160208301858383011115620003e657600080fd5b620003f383828462000634565b50505092915050565b60006200040a82516200062a565b905092915050565b60008060008060008060008060006102408a8c0312156200043257600080fd5b6000620004428c828d01620003fc565b9950506020620004558c828d01620003fc565b9850506040620004688c828d016200031e565b97505060c06200047b8c828d016200031e565b9650506101408a015167ffffffffffffffff8111156200049a57600080fd5b620004a88c828d016200039e565b9550506101608a015167ffffffffffffffff811115620004c757600080fd5b620004d58c828d016200039e565b9450506101808a015167ffffffffffffffff811115620004f457600080fd5b620005028c828d016200039e565b9350506101a08a015167ffffffffffffffff8111156200052157600080fd5b6200052f8c828d016200039e565b9250506101c0620005438c828d016200031e565b9150509295985092959850929598565b6000600f82527f696e76616c6964206164647265737300000000000000000000000000000000006020830152604082019050919050565b60006020820190508181036000830152620005a58162000553565b9050919050565b6000604051905081810181811067ffffffffffffffff82111715620005d057600080fd5b8060405250919050565b600067ffffffffffffffff821115620005f257600080fd5b602082029050919050565b600067ffffffffffffffff8211156200061557600080fd5b601f19601f8301169050602081019050919050565b6000819050919050565b60005b838110156200065457808201518184015260208101905062000637565b8381111562000664576000848401525b50505050565b612d35806200067a6000396000f3006080604052600436106100d0576000357c0100000000000000000000000000000000000000000000000000000000900463ffffffff16806307c398be146100d55780630f31b7d214610112578063332d2b871461012e5780634dd3d46a146101595780635792e26214610196578063603d943f146101c1578063736f6d33146101ea57806389346abf1461021357806391655753146102505780639948dd13146102795780639f771e1e146102a2578063b8cb57b8146102c0578063d6f904db146102eb578063d83017e114610316575b600080fd5b3480156100e157600080fd5b506100fc60048036036100f791908101906124e9565b610341565b6040516101099190612993565b60405180910390f35b61012c600480360361012791908101906124e9565b610511565b005b34801561013a57600080fd5b50610143610da0565b6040516101509190612bf5565b60405180910390f35b34801561016557600080fd5b50610180600480360361017b91908101906124e9565b610da6565b60405161018d9190612bf5565b60405180910390f35b3480156101a257600080fd5b506101ab610dc0565b6040516101b89190612bf5565b60405180910390f35b3480156101cd57600080fd5b506101e860048036036101e391908101906124a8565b610dc6565b005b3480156101f657600080fd5b50610211600480360361020c91908101906124a8565b61111f565b005b34801561021f57600080fd5b5061023a600480360361023591908101906124e9565b611478565b6040516102479190612bf5565b60405180910390f35b34801561025c57600080fd5b50610277600480360361027291908101906124a8565b611492565b005b34801561028557600080fd5b506102a0600480360361029b91908101906124a8565b6117eb565b005b6102aa611b43565b6040516102b79190612993565b60405180910390f35b3480156102cc57600080fd5b506102d5611ed9565b6040516102e29190612bf5565b60405180910390f35b3480156102f757600080fd5b50610300611edf565b60405161030d9190612993565b60405180910390f35b34801561032257600080fd5b5061032b6123e7565b6040516103389190612993565b60405180910390f35b6060601460009054906101000a900473ffffffffffffffffffffffffffffffffffffffff1673ffffffffffffffffffffffffffffffffffffffff163373ffffffffffffffffffffffffffffffffffffffff16141515156103a057600080fd5b60001515601560003373ffffffffffffffffffffffffffffffffffffffff1673ffffffffffffffffffffffffffffffffffffffff16815260200190815260200160002060009054906101000a900460ff161515141515610435576040517f08c379a000000000000000000000000000000000000000000000000000000000815260040161042c90612b75565b60405180910390fd5b60048214156104d3576001601560003373ffffffffffffffffffffffffffffffffffffffff1673ffffffffffffffffffffffffffffffffffffffff16815260200190815260200160002060006101000a81548160ff0219169083151502179055506040805190810160405280601381526020017f736f6c7665645f7375636365737366756c6c7900000000000000000000000000815250905061050c565b6040805190810160405280601681526020017f77726f6e6720616e737765722074727920616761696e0000000000000000000081525090505b919050565b600080600080601460009054906101000a900473ffffffffffffffffffffffffffffffffffffffff1673ffffffffffffffffffffffffffffffffffffffff163373ffffffffffffffffffffffffffffffffffffffff161415156105a9576040517f08c379a00000000000000000000000000000000000000000000000000000000081526004016105a090612b55565b60405180910390fd5b600560036004811015156105b957fe5b0154421115156105c857600080fd5b600093507fffffffffffffffffffffffffffffffffffffffffffffffffffffffffffffffff9150600192505b600b54831115156106905761060b60105486612424565b604051808281526020019150506040518091039020600019166019600085815260200190815260200160002060010154600019161480156106615750816019600085815260200190815260200160002060050154105b1561068357601960008481526020019081526020016000206005015491508293505b82806001019350506105f4565b600084111561072e5760106018546003028115156106aa57fe5b04601760006019600088815260200190815260200160002060000160009054906101000a900473ffffffffffffffffffffffffffffffffffffffff1673ffffffffffffffffffffffffffffffffffffffff1673ffffffffffffffffffffffffffffffffffffffff168152602001908152602001600020600082825401925050819055505b600093507fffffffffffffffffffffffffffffffffffffffffffffffffffffffffffffffff9150600192505b600b54831115156107f65761077160115486612424565b604051808281526020019150506040518091039020600019166019600085815260200190815260200160002060020154600019161480156107c75750816019600085815260200190815260200160002060060154105b156107e957601960008481526020019081526020016000206006015491508293505b828060010193505061075a565b600084111561089457601060185460030281151561081057fe5b04601760006019600088815260200190815260200160002060000160009054906101000a900473ffffffffffffffffffffffffffffffffffffffff1673ffffffffffffffffffffffffffffffffffffffff1673ffffffffffffffffffffffffffffffffffffffff168152602001908152602001600020600082825401925050819055505b600093507fffffffffffffffffffffffffffffffffffffffffffffffffffffffffffffffff9150600192505b600b548311151561095c576108d760125486612424565b6040518082815260200191505060405180910390206000191660196000858152602001908152602001600020600301546000191614801561092d5750816019600085815260200190815260200160002060070154105b1561094f57601960008481526020019081526020016000206007015491508293505b82806001019350506108c0565b60008411156109fa57601060185460030281151561097657fe5b04601760006019600088815260200190815260200160002060000160009054906101000a900473ffffffffffffffffffffffffffffffffffffffff1673ffffffffffffffffffffffffffffffffffffffff1673ffffffffffffffffffffffffffffffffffffffff168152602001908152602001600020600082825401925050819055505b600093507fffffffffffffffffffffffffffffffffffffffffffffffffffffffffffffffff9150600192505b600b5483111515610ac257610a3d60135486612424565b60405180828152602001915050604051809103902060001916601960008581526020019081526020016000206002015460001916148015610a935750816019600085815260200190815260200160002060080154105b15610ab557601960008481526020019081526020016000206008015491508293505b8280600101935050610a26565b6000841115610b60576010601854600302811515610adc57fe5b04601760006019600088815260200190815260200160002060000160009054906101000a900473ffffffffffffffffffffffffffffffffffffffff1673ffffffffffffffffffffffffffffffffffffffff1673ffffffffffffffffffffffffffffffffffffffff168152602001908152602001600020600082825401925050819055505b600192505b600b54831015610d6557601760006019600086815260200190815260200160002060000160009054906101000a900473ffffffffffffffffffffffffffffffffffffffff1673ffffffffffffffffffffffffffffffffffffffff1673ffffffffffffffffffffffffffffffffffffffff1681526020019081526020016000205490507f9e159c04d364628cef8ee936d8380b37ba78a808dbac77ac40d098926b7ce0386019600085815260200190815260200160002060000160009054906101000a900473ffffffffffffffffffffffffffffffffffffffff1682604051610c4e92919061296a565b60405180910390a16000811115610d58576000601760006019600087815260200190815260200160002060000160009054906101000a900473ffffffffffffffffffffffffffffffffffffffff1673ffffffffffffffffffffffffffffffffffffffff1673ffffffffffffffffffffffffffffffffffffffff168152602001908152602001600020819055506019600084815260200190815260200160002060000160009054906101000a900473ffffffffffffffffffffffffffffffffffffffff1673ffffffffffffffffffffffffffffffffffffffff166108fc829081150290604051600060405180830381858888f19350505050158015610d56573d6000803e3d6000fd5b505b8280600101935050610b65565b601460009054906101000a900473ffffffffffffffffffffffffffffffffffffffff1673ffffffffffffffffffffffffffffffffffffffff16ff5b600b5481565b600581600481101515610db557fe5b016000915090505481565b60095481565b600060196000601a60003373ffffffffffffffffffffffffffffffffffffffff1673ffffffffffffffffffffffffffffffffffffffff1681526020019081526020016000205481526020019081526020016000206004015460001916141515610e64576040517f08c379a0000000000000000000000000000000000000000000000000000000008152600401610e5b906129f5565b60405180910390fd5b601460009054906101000a900473ffffffffffffffffffffffffffffffffffffffff1673ffffffffffffffffffffffffffffffffffffffff163373ffffffffffffffffffffffffffffffffffffffff1614151515610ec157600080fd5b60011515601660003373ffffffffffffffffffffffffffffffffffffffff1673ffffffffffffffffffffffffffffffffffffffff16815260200190815260200160002060009054906101000a900460ff161515141515610f56576040517f08c379a0000000000000000000000000000000000000000000000000000000008152600401610f4d906129d5565b60405180910390fd5b60016003600481101515610f6657fe5b01544210151515610fac576040517f08c379a0000000000000000000000000000000000000000000000000000000008152600401610fa390612af5565b60405180910390fd5b60056003600481101515610fbc57fe5b01544211151515611002576040517f08c379a0000000000000000000000000000000000000000000000000000000008152600401610ff990612bd5565b60405180910390fd5b806040518082805190602001908083835b6020831015156110385780518252602082019150602081019050602083039250611013565b6001836020036101000a038019825116818451168082178552505050505050905001915050604051809103902060196000601a60003373ffffffffffffffffffffffffffffffffffffffff1673ffffffffffffffffffffffffffffffffffffffff16815260200190815260200160002054815260200190815260200160002060040181600019169055504260196000601a60003373ffffffffffffffffffffffffffffffffffffffff1673ffffffffffffffffffffffffffffffffffffffff1681526020019081526020016000205481526020019081526020016000206008018190555050565b600060196000601a60003373ffffffffffffffffffffffffffffffffffffffff1673ffffffffffffffffffffffffffffffffffffffff16815260200190815260200160002054815260200190815260200160002060030154600019161415156111bd576040517f08c379a00000000000000000000000000000000000000000000000000000000081526004016111b4906129f5565b60405180910390fd5b601460009054906101000a900473ffffffffffffffffffffffffffffffffffffffff1673ffffffffffffffffffffffffffffffffffffffff163373ffffffffffffffffffffffffffffffffffffffff161415151561121a57600080fd5b60011515601660003373ffffffffffffffffffffffffffffffffffffffff1673ffffffffffffffffffffffffffffffffffffffff16815260200190815260200160002060009054906101000a900460ff1615151415156112af576040517f08c379a00000000000000000000000000000000000000000000000000000000081526004016112a6906129d5565b60405180910390fd5b600160026004811015156112bf57fe5b01544210151515611305576040517f08c379a00000000000000000000000000000000000000000000000000000000081526004016112fc90612a35565b60405180910390fd5b6005600260048110151561131557fe5b0154421115151561135b576040517f08c379a000000000000000000000000000000000000000000000000000000000815260040161135290612a15565b60405180910390fd5b806040518082805190602001908083835b602083101515611391578051825260208201915060208101905060208303925061136c565b6001836020036101000a038019825116818451168082178552505050505050905001915050604051809103902060196000601a60003373ffffffffffffffffffffffffffffffffffffffff1673ffffffffffffffffffffffffffffffffffffffff16815260200190815260200160002054815260200190815260200160002060030181600019169055504260196000601a60003373ffffffffffffffffffffffffffffffffffffffff1673ffffffffffffffffffffffffffffffffffffffff1681526020019081526020016000205481526020019081526020016000206007018190555050565b60018160048110151561148757fe5b016000915090505481565b600060196000601a60003373ffffffffffffffffffffffffffffffffffffffff1673ffffffffffffffffffffffffffffffffffffffff1681526020019081526020016000205481526020019081526020016000206001015460001916141515611530576040517f08c379a0000000000000000000000000000000000000000000000000000000008152600401611527906129f5565b60405180910390fd5b601460009054906101000a900473ffffffffffffffffffffffffffffffffffffffff1673ffffffffffffffffffffffffffffffffffffffff163373ffffffffffffffffffffffffffffffffffffffff161415151561158d57600080fd5b60011515601660003373ffffffffffffffffffffffffffffffffffffffff1673ffffffffffffffffffffffffffffffffffffffff16815260200190815260200160002060009054906101000a900460ff161515141515611622576040517f08c379a0000000000000000000000000000000000000000000000000000000008152600401611619906129d5565b60405180910390fd5b6001600060048110151561163257fe5b01544210151515611678576040517f08c379a000000000000000000000000000000000000000000000000000000000815260040161166f90612bb5565b60405180910390fd5b6005600060048110151561168857fe5b015442111515156116ce576040517f08c379a00000000000000000000000000000000000000000000000000000000081526004016116c590612ad5565b60405180910390fd5b806040518082805190602001908083835b60208310151561170457805182526020820191506020810190506020830392506116df565b6001836020036101000a038019825116818451168082178552505050505050905001915050604051809103902060196000601a60003373ffffffffffffffffffffffffffffffffffffffff1673ffffffffffffffffffffffffffffffffffffffff16815260200190815260200160002054815260200190815260200160002060010181600019169055504260196000601a60003373ffffffffffffffffffffffffffffffffffffffff1673ffffffffffffffffffffffffffffffffffffffff1681526020019081526020016000205481526020019081526020016000206005018190555050565b600060196000601a60003373ffffffffffffffffffffffffffffffffffffffff1673ffffffffffffffffffffffffffffffffffffffff1681526020019081526020016000205481526020019081526020016000206002015460001916141515611889576040517f08c379a0000000000000000000000000000000000000000000000000000000008152600401611880906129f5565b60405180910390fd5b601460009054906101000a900473ffffffffffffffffffffffffffffffffffffffff1673ffffffffffffffffffffffffffffffffffffffff163373ffffffffffffffffffffffffffffffffffffffff16141515156118e657600080fd5b60011515601660003373ffffffffffffffffffffffffffffffffffffffff1673ffffffffffffffffffffffffffffffffffffffff16815260200190815260200160002060009054906101000a900460ff16151514151561197b576040517f08c379a0000000000000000000000000000000000000000000000000000000008152600401611972906129d5565b60405180910390fd5b60018060048110151561198a57fe5b015442101515156119d0576040517f08c379a00000000000000000000000000000000000000000000000000000000081526004016119c790612b35565b60405180910390fd5b600560016004811015156119e057fe5b01544211151515611a26576040517f08c379a0000000000000000000000000000000000000000000000000000000008152600401611a1d90612b95565b60405180910390fd5b806040518082805190602001908083835b602083101515611a5c5780518252602082019150602081019050602083039250611a37565b6001836020036101000a038019825116818451168082178552505050505050905001915050604051809103902060196000601a60003373ffffffffffffffffffffffffffffffffffffffff1673ffffffffffffffffffffffffffffffffffffffff16815260200190815260200160002054815260200190815260200160002060020181600019169055504260196000601a60003373ffffffffffffffffffffffffffffffffffffffff1673ffffffffffffffffffffffffffffffffffffffff1681526020019081526020016000205481526020019081526020016000206006018190555050565b6060601460009054906101000a900473ffffffffffffffffffffffffffffffffffffffff1673ffffffffffffffffffffffffffffffffffffffff163373ffffffffffffffffffffffffffffffffffffffff1614151515611ba257600080fd5b60011515601560003373ffffffffffffffffffffffffffffffffffffffff1673ffffffffffffffffffffffffffffffffffffffff16815260200190815260200160002060009054906101000a900460ff161515141515611c0157600080fd5b60011515601660003373ffffffffffffffffffffffffffffffffffffffff1673ffffffffffffffffffffffffffffffffffffffff16815260200190815260200160002060009054906101000a900460ff16151514151515611c97576040517f08c379a0000000000000000000000000000000000000000000000000000000008152600401611c8e90612a95565b60405180910390fd5b600a54600b54101515611cdf576040517f08c379a0000000000000000000000000000000000000000000000000000000008152600401611cd690612b15565b60405180910390fd5b60056003600481101515611cef57fe5b01544211151515611d35576040517f08c379a0000000000000000000000000000000000000000000000000000000008152600401611d2c90612a75565b60405180910390fd5b6009543410151515611d7c576040517f08c379a0000000000000000000000000000000000000000000000000000000008152600401611d7390612ab5565b60405180910390fd5b600b6000815480929190600101919050555034601854016018819055506001601660003373ffffffffffffffffffffffffffffffffffffffff1673ffffffffffffffffffffffffffffffffffffffff16815260200190815260200160002060006101000a81548160ff0219169083151502179055506009543403601760003373ffffffffffffffffffffffffffffffffffffffff1673ffffffffffffffffffffffffffffffffffffffff16815260200190815260200160002081905550600b54601a60003373ffffffffffffffffffffffffffffffffffffffff1673ffffffffffffffffffffffffffffffffffffffff168152602001908152602001600020819055503360196000600b54815260200190815260200160002060000160006101000a81548173ffffffffffffffffffffffffffffffffffffffff021916908373ffffffffffffffffffffffffffffffffffffffff16021790555090565b600a5481565b6060600060011515601660003373ffffffffffffffffffffffffffffffffffffffff1673ffffffffffffffffffffffffffffffffffffffff16815260200190815260200160002060009054906101000a900460ff1615151480611f8f5750601460009054906101000a900473ffffffffffffffffffffffffffffffffffffffff1673ffffffffffffffffffffffffffffffffffffffff163373ffffffffffffffffffffffffffffffffffffffff16145b1515611fd0576040517f08c379a0000000000000000000000000000000000000000000000000000000008152600401611fc7906129d5565b60405180910390fd5b42905060016000600481101515611fe357fe5b01548110151515612029576040517f08c379a000000000000000000000000000000000000000000000000000000000815260040161202090612a55565b60405180910390fd5b6005600360048110151561203957fe5b0154811115151561207f576040517f08c379a0000000000000000000000000000000000000000000000000000000008152600401612076906129b5565b60405180910390fd5b6001600060048110151561208f57fe5b015481101580156120b15750600560006004811015156120ab57fe5b01548111155b1561215857600c8054600181600116156101000203166002900480601f01602080910402602001604051908101604052809291908181526020018280546001816001161561010002031660029004801561214c5780601f106121215761010080835404028352916020019161214c565b820191906000526020600020905b81548152906001019060200180831161212f57829003601f168201915b505050505091506123e3565b60018060048110151561216757fe5b0154811015801561218957506005600160048110151561218357fe5b01548111155b1561223057600d8054600181600116156101000203166002900480601f0160208091040260200160405190810160405280929190818152602001828054600181600116156101000203166002900480156122245780601f106121f957610100808354040283529160200191612224565b820191906000526020600020905b81548152906001019060200180831161220757829003601f168201915b505050505091506123e3565b6001600260048110151561224057fe5b0154811015801561226257506005600260048110151561225c57fe5b01548111155b1561230957600e8054600181600116156101000203166002900480601f0160208091040260200160405190810160405280929190818152602001828054600181600116156101000203166002900480156122fd5780601f106122d2576101008083540402835291602001916122fd565b820191906000526020600020905b8154815290600101906020018083116122e057829003601f168201915b505050505091506123e3565b6001600360048110151561231957fe5b0154811015801561233b57506005600360048110151561233557fe5b01548111155b156123e257600f8054600181600116156101000203166002900480601f0160208091040260200160405190810160405280929190818152602001828054600181600116156101000203166002900480156123d65780601f106123ab576101008083540402835291602001916123d6565b820191906000526020600020905b8154815290600101906020018083116123b957829003601f168201915b505050505091506123e3565b5b5090565b60606040805190810160405280600381526020017f322b320000000000000000000000000000000000000000000000000000000000815250905090565b600061271182840a81151561243557fe5b06905092915050565b600082601f830112151561245157600080fd5b813561246461245f82612c3d565b612c10565b9150808252602083016020830185838301111561248057600080fd5b61248b838284612ca8565b50505092915050565b60006124a08235612c9e565b905092915050565b6000602082840312156124ba57600080fd5b600082013567ffffffffffffffff8111156124d457600080fd5b6124e08482850161243e565b91505092915050565b6000602082840312156124fb57600080fd5b600061250984828501612494565b91505092915050565b61251b81612c74565b82525050565b600061252c82612c69565b808452612540816020860160208601612cb7565b61254981612cea565b602085010191505092915050565b6000600d82527f7175697a2066696e6973686564000000000000000000000000000000000000006020830152604082019050919050565b6000601182527f41636365737320526573747269637465640000000000000000000000000000006020830152604082019050919050565b6000601182527f616c726561647920617474656d707465640000000000000000000000000000006020830152604082019050919050565b6000601882527f7175657374696f6e5f332074696d652066696e697368656400000000000000006020830152604082019050919050565b6000601a82527f7175657374696f6e5f33206e6f742079657420737461727465640000000000006020830152604082019050919050565b6000601082527f7175697a206e6f742073746172746564000000000000000000000000000000006020830152604082019050919050565b6000600d82527f5175697a2066696e6973686564000000000000000000000000000000000000006020830152604082019050919050565b6000601282527f416c7265616479205265676973746572656400000000000000000000000000006020830152604082019050919050565b6000601582527f416d6f756e74206e6f742073756666696369656e7400000000000000000000006020830152604082019050919050565b6000601882527f7175657374696f6e5f312074696d652066696e697368656400000000000000006020830152604082019050919050565b6000601a82527f7175657374696f6e5f34206e6f742079657420737461727465640000000000006020830152604082019050919050565b6000601582527f506c61796572206c696d697420657863656564656400000000000000000000006020830152604082019050919050565b6000601a82527f7175657374696f6e5f32206e6f742079657420737461727465640000000000006020830152604082019050919050565b6000602182527f4f6e6c7920436f6e647563746f72206861732061636365737320746f2074686960208301527f73000000000000000000000000000000000000000000000000000000000000006040830152606082019050919050565b6000600e82527f416c726561647920736f6c7665640000000000000000000000000000000000006020830152604082019050919050565b6000601882527f7175657374696f6e5f322074696d652066696e697368656400000000000000006020830152604082019050919050565b6000601a82527f7175657374696f6e5f31206e6f742079657420737461727465640000000000006020830152604082019050919050565b6000601882527f7175657374696f6e5f342074696d652066696e697368656400000000000000006020830152604082019050919050565b61296481612c94565b82525050565b600060408201905061297f6000830185612512565b61298c602083018461295b565b9392505050565b600060208201905081810360008301526129ad8184612521565b905092915050565b600060208201905081810360008301526129ce81612557565b9050919050565b600060208201905081810360008301526129ee8161258e565b9050919050565b60006020820190508181036000830152612a0e816125c5565b9050919050565b60006020820190508181036000830152612a2e816125fc565b9050919050565b60006020820190508181036000830152612a4e81612633565b9050919050565b60006020820190508181036000830152612a6e8161266a565b9050919050565b60006020820190508181036000830152612a8e816126a1565b9050919050565b60006020820190508181036000830152612aae816126d8565b9050919050565b60006020820190508181036000830152612ace8161270f565b9050919050565b60006020820190508181036000830152612aee81612746565b9050919050565b60006020820190508181036000830152612b0e8161277d565b9050919050565b60006020820190508181036000830152612b2e816127b4565b9050919050565b60006020820190508181036000830152612b4e816127eb565b9050919050565b60006020820190508181036000830152612b6e81612822565b9050919050565b60006020820190508181036000830152612b8e8161287f565b9050919050565b60006020820190508181036000830152612bae816128b6565b9050919050565b60006020820190508181036000830152612bce816128ed565b9050919050565b60006020820190508181036000830152612bee81612924565b9050919050565b6000602082019050612c0a600083018461295b565b92915050565b6000604051905081810181811067ffffffffffffffff82111715612c3357600080fd5b8060405250919050565b600067ffffffffffffffff821115612c5457600080fd5b601f19601f8301169050602081019050919050565b600081519050919050565b600073ffffffffffffffffffffffffffffffffffffffff82169050919050565b6000819050919050565b6000819050919050565b82818337600083830152505050565b60005b83811015612cd5578082015181840152602081019050612cba565b83811115612ce4576000848401525b50505050565b6000601f19601f83011690509190505600a265627a7a72305820ab6de506a05aa275d865125eeec4988119f4733c510839437d78f77c892bc8c96c6578706572696d656e74616cf50037",
  "source": "pragma solidity ^0.4.22;\npragma experimental ABIEncoderV2;\n\ncontract quiz{\n    uint private register_time;\n    uint [4] public start_time;\n    uint [4] public end_time;\n    uint public registration_fee;\n    uint public no_members;\n    uint public num_players;\n    string private question_1;\n    string private question_2;\n    string private question_3;\n    string private question_4;\n    uint private answer_1;\n    uint private answer_2;\n    uint private answer_3;\n    uint private answer_4;\n    address conductor;\n    \n    mapping (address => bool) puzzle;\n    mapping (address => bool) register;\n    mapping(address => uint) pending_amount;\n    \n    event AmountCollected(address sender, uint amount);\n    \n    uint tfee;\n    \n    struct Participant{\n        address account;\n        bytes32 a1;\n        bytes32 a2;\n        bytes32 a3;\n        bytes32 a4;\n        uint timestamp1;\n        uint timestamp2;\n        uint timestamp3;\n        uint timestamp4;\n    }\n    \n    mapping (uint => Participant) players;\n    mapping(address=>uint) player_index;\n    \n    // constructor(uint participants, uint pfee, uint [4] starttime, uint [4] endtime, string [4] questions) payable\n    constructor(uint participants, uint pfee, uint [4] starttime, uint [4] endtime, string question1, string question2,string question3,string question4, uint[4] answers) payable\n    {\n        conductor=msg.sender;\n        require(conductor.balance>0,\"invalid address\");\n        register_time=now;\n        for(uint i=0;i<4;i++)\n        {\n            start_time[i]=register_time+(starttime[i]*5);\n            end_time[i]=register_time+(endtime[i]*5);\n        }\n        question_1=question1;\n        question_2=question2;\n        question_3=question3;\n        question_4=question4;\n        answer_1=answers[0];\n        answer_2=answers[1];\n        answer_3=answers[2];\n        answer_4=answers[3];\n        // question_1=\"Capital Of Australia\";\n        // question_2=\"3*8\";\n        // question_3=\"Dhoni's jersey Number \";\n        // question_4=\"Kohli's jersey Number \";\n        no_members=participants;\n        registration_fee=pfee;\n        tfee=0;\n        // answer_1=\"canberra\";\n        // answer_2=\"24\";\n        // answer_3=\"7\";\n        // answer_4=\"18\";\n        num_players=0;\n    }\n    \n    modifier onlyconductor()\n    {\n        require(msg.sender==conductor,\"Only Conductor has access to this\");\n        _;\n    }\n    \n    \n    function crypto_puzzle() public view returns(string)\n    {\n        return \"2+2\";\n    }\n    \n    function solve_puzzle(uint answer) public returns(string)\n    {\n        require(msg.sender!=conductor);\n        require(puzzle[msg.sender]==false,\"Already solved\");\n        if(answer==4)\n        {\n            puzzle[msg.sender]=true;\n            return \"solved_successfully\";\n        }\n        else\n        {\n            return \"wrong answer try again\";\n        }\n    }\n    \n    function answer_question_1(string answer) public\n    {\n        require(players[player_index[msg.sender]].a1==\"\",\"already attempted\");\n        require(msg.sender!=conductor);\n        require(register[msg.sender]==true,\"Access Restricted\");\n        require(now>=start_time[0],\"question_1 not yet started\");\n        require(now<=end_time[0],\"question_1 time finished\");\n        players[player_index[msg.sender]].a1=keccak256(answer);\n        players[player_index[msg.sender]].timestamp1=now;\n    }\n    \n    function answer_question_2(string answer) public\n    {\n        require(players[player_index[msg.sender]].a2==\"\",\"already attempted\");\n        require(msg.sender!=conductor);\n        require(register[msg.sender]==true,\"Access Restricted\");\n        require(now>=start_time[1],\"question_2 not yet started\");\n        require(now<=end_time[1],\"question_2 time finished\");\n        players[player_index[msg.sender]].a2=keccak256(answer);\n        players[player_index[msg.sender]].timestamp2=now;\n    }\n    \n    function answer_question_3(string answer) public\n    {\n        require(players[player_index[msg.sender]].a3==\"\",\"already attempted\");\n        require(msg.sender!=conductor);\n        require(register[msg.sender]==true,\"Access Restricted\");\n        require(now>=start_time[2],\"question_3 not yet started\");\n        require(now<=end_time[2],\"question_3 time finished\");\n        players[player_index[msg.sender]].a3=keccak256(answer);\n        players[player_index[msg.sender]].timestamp3=now;\n    }\n    \n    function answer_question_4(string answer) public\n    {\n        require(players[player_index[msg.sender]].a4==\"\",\"already attempted\");\n        require(msg.sender!=conductor);\n        require(register[msg.sender]==true,\"Access Restricted\");\n        require(now>=start_time[3],\"question_4 not yet started\");\n        require(now<=end_time[3],\"question_4 time finished\");\n        players[player_index[msg.sender]].a4=keccak256(answer);\n        players[player_index[msg.sender]].timestamp4=now;\n    }\n    \n    \n    \n    function pay_fee() public payable returns(string)\n    {\n        require(msg.sender!=conductor);\n        require(puzzle[msg.sender]==true);  \n        require(register[msg.sender]!=true, \"Already Registered\");\n        require(num_players<no_members,\"Player limit exceeded\");\n        require(now<=end_time[3],\"Quiz finished\");\n        require(msg.value>=registration_fee,\"Amount not sufficient\");\n        num_players++;\n        tfee=tfee+msg.value;\n        register[msg.sender]=true;\n        pending_amount[msg.sender]=msg.value - registration_fee;\n        player_index[msg.sender]=num_players;\n        players[num_players].account=msg.sender;\n    }\n    \n    function reveal_questions() public view returns(string)\n    {\n        require(register[msg.sender]==true || msg.sender==conductor,\"Access Restricted\");\n        uint temp=now;\n        // return question_1;\n        require(temp>=start_time[0], \"quiz not started\");\n        require(temp<= end_time[3],\"quiz finished\");\n        // for(uint i=0;i<4;i++)\n        // {\n            if(temp>=start_time[0] && temp<=end_time[0])\n            {\n                return question_1;\n            }\n            if(temp>=start_time[1] && temp<=end_time[1])\n            {\n                return question_2;\n            }\n            if(temp>=start_time[2] && temp<=end_time[2])\n            {\n                return question_3;\n            }\n            if(temp>=start_time[3] && temp<=end_time[3])\n            {\n                return question_4;\n            }\n        // }\n    }\n    \n    function encrytion(uint answer,uint key) private returns(uint)\n    {\n        return (answer**key)%10001;\n    }\n    \n    function get_winners(uint key) public onlyconductor payable\n    {\n        require(now>end_time[3]);\n        //Q1\n        uint winner=0;\n        uint i;\n        uint prev=2**256 - 1;\n        for(i=1;i<=num_players;i++)\n        {\n            if(players[i].a1==keccak256(encrytion(answer_1,key)) && players[i].timestamp1<prev)\n            {\n                prev=players[i].timestamp1;\n                winner=i;\n            }\n        }\n        if(winner>0)\n        {\n            pending_amount[players[winner].account]+=((3*tfee)/16);\n        }\n        //Q2\n        winner=0;\n        prev=2**256 - 1;\n        for(i=1;i<=num_players;i++)\n        {\n            if(players[i].a2==keccak256(encrytion(answer_2,key)) && players[i].timestamp2<prev)\n            {\n                prev=players[i].timestamp2;\n                winner=i;\n            }\n        }\n        if(winner>0)\n        {\n            pending_amount[players[winner].account]+=((3*tfee)/16);\n        }\n        \n        //Q3\n        winner=0;\n        prev=2**256 - 1;\n        for(i=1;i<=num_players;i++)\n        {\n            if(players[i].a3==keccak256(encrytion(answer_3,key)) && players[i].timestamp3<prev)\n            {\n                prev=players[i].timestamp3;\n                winner=i;\n            }\n        }\n        if(winner>0)\n        {\n            pending_amount[players[winner].account]+=((3*tfee)/16);\n        }\n        \n        //Q4\n        winner=0;\n        prev=2**256 - 1;\n        for(i=1;i<=num_players;i++)\n        {\n            if(players[i].a2==keccak256(encrytion(answer_4,key)) && players[i].timestamp4<prev)\n            {\n                prev=players[i].timestamp4;\n                winner=i;\n            }\n        }\n        if(winner>0)\n        {\n            pending_amount[players[winner].account]+=((3*tfee)/16);\n        }\n        \n        for(i=1;i<num_players;i++)\n        {\n            uint amount=pending_amount[players[i].account];\n            emit AmountCollected(players[i].account,amount);\n            \n            if(amount>0)\n            {\n                pending_amount[players[i].account]=0;\n                players[i].account.transfer(amount);\n            }\n        }\n        \n        selfdestruct(conductor);\n    }\n\n\n\n\n\n\n\n\n\n\n\n\n\n\n\n\n\n\n\n    \n}",
  "sourcePath": "/home/ramarohit/Documents/4-1/Block_chain/assignment2/contracts/quiz.sol",
  "compiler": {
    "name": "solc",
    "version": "0.4.24+commit.e67f0147.Emscripten.clang"
  },
  "schemaVersion": "2.0.1",
  "updatedAt": "2018-11-01T08:03:36.144Z"
}